:100000000C9434000C9451000C9451000C94510049
:100010000C9451000C9451000C9451000C9451001C
:100020000C9451000C9426040C9451000C94510033
:100030000C9451000C9439030C9451000C94510011
:100040000C9451000C9451000C9451000C945100EC
:100050000C9451000C9414030C9451000C94510016
:100060000C9451000C94510011241FBECFEFD8E026
:10007000DEBFCDBF11E0A0E0B1E0E6E5FBE002C0ED
:1000800005900D92AA37B107D9F721E0AAE7B1E0B0
:1000900001C01D92A638B207E1F70E944C010C94F2
:1000A000A9050C94000085B1826085B985E08A9528
:1000B000F1F7000085B18D7F85B90895CF93C82FE2
:1000C000662321F085B1816085B903C085B18E7F3B
:1000D00085B98AB180618AB98AB180628AB98AB1E8
:1000E00080648AB98AB180688AB98BB18F778BB9FD
:1000F0008BB18F7B8BB98BB18F7D8BB98BB18F7EA1
:100100008BB9CC231CF48BB180688BB9C6FF03C0BC
:100110008BB180648BB9C5FF03C08BB180628BB992
:10012000C4FF03C08BB180618BB90E9453008BB1B7
:100130008F778BB98BB18F7B8BB98BB18F7D8BB95F
:100140008BB18F7E8BB9C3FF03C08BB180688BB935
:10015000C2FF03C08BB180648BB9C1FF03C08BB1F8
:1001600080628BB9C0FF03C08BB180618BB90E94E4
:1001700053008BB180618BB98BB180628BB98BB12D
:1001800080648BB98BB180688BB987EB9BE001975A
:10019000F1F700C00000CF91089560E00E945E007A
:1001A000089561E00E945E000895611104C08058C6
:1001B0000E94CD00089580540E94CD00089581E0F2
:1001C0000E94CD00089561E00E945E000895CF93E3
:1001D000DF93FC0103C00E94E300FE01EF012196C2
:1001E00080818111F8CFDF91CF910895CF93C82FEF
:1001F00084B1816084B98AB180628AB984B1826035
:1002000084B98AB180618AB98AB180628AB98AB1B7
:1002100080648AB98AB180688AB98FEF99EF0197B3
:10022000F1F700C000008BB180628BB98BB18061A7
:100230008BB90E9453008FE19EE40197F1F700C053
:1002400000000E9453008FEF90E00197F1F700C08B
:1002500000000E9453008FEF90E00197F1F700C07B
:1002600000008BB18F7E8BB90E9453008FEF90E01E
:100270000197F1F700C0000088E20E94CD0088E0FD
:100280000E94CD000E94DF0086E00E94CD008C2FEE
:100290000E94CD00CF9108958CE00E94F60080E48A
:1002A0000E94CD00C0E008C0EC2FF0E0E050FF4F0E
:1002B00080810E94D100CF5FC830B0F380E80E94F7
:1002C000CD0084B1806284B985B18F7D85B98AB152
:1002D00081608AB98BB18E7F8BB98AB182608AB90D
:1002E0008BB18D7F8BB984B18F7E84B985B18F7EC0
:1002F00085B987B18D7F87B988B1826088B987B1A8
:100300008B7F87B988B1846088B987B1877F87B9C7
:1003100088B1886088B987B18F7E87B988B18061DC
:1003200088B9329B1AC00E94DF0010927F011092A0
:100330007E018CE00E94F60060E080E00E94D50023
:1003400080E191E00E94E70061E080E00E94D5003A
:1003500086E191E00E94E7002EC00E94DF0081E06C
:1003600090E090937F0180937E018CE00E94F600E4
:1003700060E080E00E94D5008CE191E00E94E700FF
:1003800061E080E00E94D50086E191E00E94E700F4
:1003900060E08DE00E94D50086E291E00E94E700D7
:1003A00061E08DE00E94D50080E00E94E30089E2D8
:1003B00091E00E94E700319B07C083E090E09093BA
:1003C00009018093080106C081E090E09093090143
:1003D00080930801339B05C010920D0110920C010F
:1003E00006C081E090E090930D0180930C01349B56
:1003F00005C010920F0110920E0106C081E090E03E
:1004000090930F0180930E01ECE7F0E0808180640F
:10041000808380818F77808380818E7F80838081BD
:100420008D7F808380818B7F80838081877F8083A5
:10043000EAE7F0E080818068808380818860808343
:1004400080818160808380818260808380818460FC
:100450008083E1EBF0E0808187608083E1E8F0E079
:1004600080818C7F8083808184608083E0E7F0E0FE
:10047000808181608083EFE6F0E08081816080830D
:100480007894FFCFCF93DF9300D000D0CDB7DEB705
:1004900080E390E39A8389839C838B8380917E01A0
:1004A00090917F01019709F058C0809108019091C7
:1004B00009018130910511F00397A9F560E08AE008
:1004C0000E94D5008DE691E00E94E7004AE0BE015F
:1004D0006F5F7F4F80918201909183010E9474052C
:1004E00060E08AE00E94D500CE0101960E94E700FC
:1004F0004AE0BE016F5F7F4F809180019091810142
:100500000E94740561E08AE00E94D5008DE691E0CA
:100510000E94E70061E08AE00E94D500CE010196CA
:100520000E94E7007AC00E94DF0060E080E00E9445
:10053000D5008BE291E00E94E70061E080E00E943C
:10054000D50083E491E00E94E70080E00E94E30090
:1005500089E291E00E94E70060C0809108019091DB
:100560000901029709F440C060E086E00E94D500CE
:1005700080910A0190910B018230910599F01CF451
:10058000019739F01DC08330910589F00497A1F0DF
:1005900017C060E086E00E94D50081E591E00E94EE
:1005A000E7000EC089E591E00E94E70009C081E6FE
:1005B00091E00E94E70004C089E691E00E94E70014
:1005C00061E086E00E94D5008091080190910901C8
:1005D000039729F481E791E00E94E7001EC085E7B8
:1005E00091E00E94E70019C00E94DF0060E080E017
:1005F0000E94D5008BE291E00E94E70061E080E07C
:100600000E94D50083E491E00E94E70080E00E9410
:10061000E30089E291E00E94E7000F900F900F90B5
:100620000F90DF91CF9108951F920F920FB60F9206
:1006300011248F939F9380917800909179009093EB
:100640008101809380018436910564F480910801D2
:1006500090910901039731F082E090E090930901B5
:10066000809308019F918F910F900FBE0F901F9064
:1006700018951F920F920FB60F9211242F933F934C
:100680004F935F936F937F938F939F93AF93BF939A
:10069000EF93FF9395B180E2982795B925E32A95CA
:1006A000F1F7000095B1892785B944C01C9B42C071
:1006B00010928201109283011092840110928501A0
:1006C00017C085E08A95F1F7000080918201909132
:1006D0008301A0918401B09185010196A11DB11DF6
:1006E0008093820190938301A0938401B09385014C
:1006F0001C99E7CF209182013091830140918401C0
:1007000050918501AAE2B0E00E94380528EE33E05E
:1007100040E050E00E94190520938201309383014C
:10072000409384015093850181E090E090937D0196
:1007300080937C0180917C0190917D01892B09F44B
:10074000B5CF80910A0190910B01049731F180910E
:10075000820190918301A0918401B091850184313F
:100760009105A105B1053CF483E090E090930B0165
:1007700080930A0112C089319140A105B1053CF076
:1007800081E090E090930B0180930A0106C082E023
:1007900090E090930B0180930A01EAE7F0E08081FA
:1007A0008064808310927D0110927C010E9442023D
:1007B00080917A0190917B011816190674F40196C4
:1007C00090937B0180937A010A973CF010927B0111
:1007D00010927A018BB18E7F8BB980910A01909132
:1007E0000B01019779F480910C0190910D01019713
:1007F00049F48BB181608BB981E090E090937B01EB
:1008000080937A0180910A0190910B01039751F432
:1008100080910E0190910F01019721F48BB18260BC
:100820008BB903C08BB18D7F8BB9FF91EF91BF91D5
:10083000AF919F918F917F916F915F914F913F9178
:100840002F910F900FBE0F901F9018951F920F922F
:100850000FB60F9211242F933F934F935F936F9393
:100860007F938F939F93AF93BF93EF93FF93329BAD
:1008700021C080917E0190917F01019709F04EC0C7
:100880000E94DF0010927F0110927E018CE00E9496
:10089000F60060E080E00E94D50080E191E00E94D7
:1008A000E70061E080E00E94D50086E191E00E94CF
:1008B000E70034C080917E0190917F01892B71F512
:1008C0000E94DF0081E090E090937F0180937E01A1
:1008D0008CE00E94F60060E080E00E94D5008CE190
:1008E00091E00E94E70061E080E00E94D50086E18F
:1008F00091E00E94E70060E08DE00E94D50086E272
:1009000091E00E94E70061E08DE00E94D50080E068
:100910000E94E30089E291E00E94E700319B52C00F
:100920008091080190910901039709F457C083E071
:1009300090E0909309018093080180917E0190914D
:100940007F01019749F50E94DF008CE00E94F600CC
:1009500060E080E00E94D5008CE191E00E94E70019
:1009600061E080E00E94D50086E191E00E94E7000E
:1009700060E08DE00E94D50086E291E00E94E700F1
:1009800061E08DE00E94D50080E00E94E30089E2F2
:1009900091E00E94E70022C00E94DF008CE00E94EC
:1009A000F60060E080E00E94D50080E191E00E94C6
:1009B000E70061E080E00E94D50086E191E00E94BE
:1009C000E7000CC08091080190910901039731F470
:1009D00081E090E09093090180930801349B05C069
:1009E00010920F0110920E0106C081E090E09093EA
:1009F0000F0180930E01339B05C010920D011092E0
:100A00000C0106C081E090E090930D0180930C01F1
:100A1000FF91EF91BF91AF919F918F917F916F91D6
:100A20005F914F913F912F910F900FBE0F901F90AC
:100A30001895052E97FB1EF400940E94300557FD73
:100A400007D00E94430507FC03D04EF40C943005F8
:100A500050954095309521953F4F4F4F5F4F0895EA
:100A600090958095709561957F4F8F4F9F4F08951A
:100A70000E946505A59F900DB49F900DA49F800DC9
:100A8000911D11240895A1E21A2EAA1BBB1BFD0182
:100A90000DC0AA1FBB1FEE1FFF1FA217B307E4075D
:100AA000F50720F0A21BB30BE40BF50B661F771FB5
:100AB000881F991F1A9469F7609570958095909595
:100AC0009B01AC01BD01CF010895A29FB001B39F6E
:100AD000C001A39F700D811D1124911DB29F700D47
:100AE000811D1124911D0895BB274A3031F49923AB
:100AF00022F4BDE2909581959F4F0C948005BB2711
:100B0000FB015527AA27880F991FAA1FA41710F0C9
:100B1000A41B83955051B9F7A05DAA3308F0A95DD5
:100B2000A193009779F7B111B1931192CB010C9475
:100B30009905DC01FC01672F71917723E1F732976A
:100B400004C07C916D9370836291AE17BF07C8F3A8
:060B50000895F894FFCFA8
:100B56001C141C0000000000010002000000000040
:100B660054616E6B3A0054656D703A004469737453
:100B7600616E63653A00636D0043005761726E698A
:100B86006E67207468652074656D70657261747532
:100B96007265007761732062656C6F772031303043
:100BA6000066696C6C696E67006E6F726D616C20B1
:100BB6000066756C6C202020006F66662020202061
:0A0BC600006F6666006F6E200000ED
:00000001FF
